:10000000CFC60000DFC60000DDC60000DBC6000072
:10001000D9C600000C948729D5C600000C94B00DF9
:10002000D1C60000CFC600000C94F31F0C946B29BE
:100030000C9479290C94CD1FC5C60000C3C60000DE
:100040000C944529BFC60000BDC60000BBC6000019
:10005000B9C600000C94B10DB5C60000B3C60000CF
:10006000B1C60000AFC60000040906090A09140958
:1000700012090E090E0910091A091A09E62FF72F9D
:10008000903009F49395E5B8C4B8B6EFB0937A0010
:10009000A5E0A0937B00A8E0A093810010928000CF
:1000A000AFEFA0938500A0938400A6E0A093360054
:1000B00010928B0010928A00B3E0AFE3A91B51E0CD
:1000C000392F33302AF0A05CBC4F53953350F9CF11
:1000D000B0938900A0938800A0917A00A4FFFCCF80
:1000E000B6EBB0937A00A2E0A0936F00A9E0A093D2
:1000F000810062E0A0E0A0937B00A1E0A093530008
:100100008895E5B8C4B884FF1AC0A8E10000AA9594
:10011000F1F7EF93FF93E7B1F8B1A4E0C2FCA2E0DE
:10012000C0FCA1E0BF2FBA2BAE2BB8B904B9A7B958
:10013000E7B9F8B9FF91EF910BC00C947D00ACE1E9
:1001400000000000AA95F1F725B9E5B8000004B950
:10015000A0918400A0918500B0918900A395AB1770
:1001600060F7A0917A00A4FFF3CFB6EBB0937A00CA
:100170006A9571F76091780070917900308186FD01
:10018000630F6193308186FD731F80FF7193652F2C
:100190004A9579F710926F0010928100B6E0B09303
:1001A0007A000895EE01E501DC011008407E0101AE
:1001B0003E01013E01013E01017E40401800072042
:1001C000080808F80000002060A03FA0602002029C
:1001D00002FF0202021010101F0000000708FFDBE0
:1001E000BDB5B5CBFF0708FFBB9DADADB3FF07089D
:1001F000FFFFF7FB81FFFF10100508F878385888DB
:10020000091003081C3E7F0D080710FF818181F152
:10021000E1C1FF4040404743410D080110FFFF117D
:10022000080310F1E1C14743410E000820212112CB
:100230002060E0E0E0FEFE0402010001037F7F2178
:10024000C2C4C4C04094840007030102040E080223
:1002500010FEFE7F7F00000000110005202060E0FE
:10026000E0E00201000103C2C4C4C0400703010270
:1002700004010410090A0C4E6F742063616C6962FA
:1002800072617465642100B903870358032E030764
:1002900003E402C302A40288020000140029003E05
:1002A000005300690080009700AE00C600DF00F830
:1002B0000012012D01490165018201A001BE01DE8C
:1002C00001FF012102440268028E02B502DE02092A
:1002D00003350364039403C803FE0337047304B4B3
:1002E00004F90443059305EA054906B3062907AE58
:1002F000074808FF08DE09FD0A930C480F991B0008
:100300000000000000000000000000000000001ECF
:100310002121211200807F0000007E4A4A4A3400D9
:100320000000000000FC4020100804020100000052
:10033000010101010101010101010101017F0488A5
:10034000D0E0F0F800000000000000000000000015
:10035000000000000000FC94948400000102FC00F6
:1003600000000000000000000000001E21212112FA
:10037000E0C0804020100F000000C020202040007E
:100380000000FC00009E9E04030303030200000023
:10039000202023242525232020203F00007B7B21B3
:1003A00042840480C0000000000000000000000043
:1003B000000000FC94948400040607070708F0007E
:1003C000000000000000000000000000803F21212C
:1003D000120C00000000FF000000F0084848C800B0
:1003E00000FE0000E7818181C1E1F181818101008E
:1003F0002020202121212020203F0000F3404040E8
:1004000041434740407FC000000000000000000062
:100410000000000000489494946400000000FF0075
:100420000000000000000000000000000000003F8D
:100430002121120C0000FF000000F0084848D00005
:100440000000000000FEFE0404040404040407008D
:1004500008080809090908087F3E1C08087F7F2052
:10046000202020202020E0000000000000000000EC
:100470000000000000000048949494640000FF0015
:1004800000000000000000000000FF003C0A090A14
:100490003C002231292926000082868E9EBEFEFE67
:1004A000BEDEEFF6FAFEFEFAF2E2C28200000008BB
:1004B000080804027984A4A46800FF00000000007A
:1004C000000000000000000000000000000000002C
:1004D0000000FF0000F0282428F0001008FC0000B5
:1004E000000000000000000000003C0A090A3C0077
:1004F000FF000000000000000000000000000000FD
:10050000000000040C1C3C7CFF7C3C1C0C04000024
:10051000000000009EA1A9A99A804323130B0703A2
:10052000FF030303030303000000000000000000BA
:100530000000788484844800FF0000000000000070
:100540000000F00804E2110909090909090909096B
:100550001121C2040810E000000001020404070099
:10056000000000008040201088442310080403008D
:1005700000000000000000000000FE0100FC02017D
:10058000000000000000000000000000000000006B
:10059000000079494979000000000000000000C017
:1005A000F818181818F8C00007060606060700C055
:1005B000FCF8F0E0DCFCC0000F0703010E0F00C0E8
:1005C000FCDCE0F0F8FCC0000F0E0103070F00C0D8
:1005D000FCFC0000FCFCC0000F0F00000F0F00F03F
:1005E000F80C0C0CF8F0000C0D0F000F0D0C0000B7
:1005F000FCFC0000F8F800381F0F03060307060C88
:100600000C0C0C0CFCFCC00C0C0C0C0C0F0F00C0E8
:10061000FCFC0C0C0C0C0C000F0F0C0C0C0C0CC08C
:10062000C0C0C0C0C0C0C00000000000000000C0CA
:1006300000008000008000070C0C070C0C070C0069
:10064000800000800000C00C070C0C070C0C070099
:10065000F8FC4662BC1800381F0F000407030000B6
:10066000000000000000000000000000000000008A
:10067000000000000000000000000000000000007A
:10068000000000000000000000000000000000006A
:10069000000000000000000000000000000000005A
:1006A000F8FC0602FEFE00381F0F08080F1F38FE78
:1006B000FE0000FEFE00000F0F08080F3F1800FEAE
:1006C000FE00F800FEFE000F0F080F080F3F180095
:1006D00080E03010F0F000381F0F08080F1F38C0FE
:1006E000E028F828E0C000070F283F280F0700F097
:1006F000F00000F0F000000F0F08080F3F1800F0A6
:10070000F000F000F0F0000F0F080F080F3F180086
:1007100000000000000000000000000000000000D9
:1007200000000000000000000000000000000000C9
:1007300000000000000000000000000000000000B9
:1007400000000000000000000000000000000000A9
:100750000000000000000000000000000000000099
:100760000000000000000000000000000000000089
:100770000000000000000000000000000000000079
:100780000000000000000000000000000000000069
:100790000000000000000000000000000000000059
:1007A0000000000000000000000000000000000049
:1007B000007CFEFE7C00000000001B1B000000000F
:1007C0000E1E00001E0E00000000000000000020B1
:1007D000F8F820F8F82000020F0F020F0F0200387F
:1007E0007C444747CC9800060C0838380F070008AF
:1007F0001494C860301800060301040A0A0400803B
:10080000D87CE4BCD84000070F0808070F08000098
:10081000080F0700000000000000000000000000BA
:1008200000F0F80C0400000000070F181000000092
:1008300000040CF8F00000000010180F0700004042
:1008400050F0E0F050400000010100010100000004
:100850004040F0F0404000000000010100000000B6
:100860000000000000000000002C3C1C000000C044
:10087000C0C0C0C0C0C000000000000000000000F8
:100880000000000000000000000C0C000000000050
:100890000080C0603018000603010000000000F86E
:1008A000FC060206FCF80003070C080C0703000016
:1008B000181CFEFE0000000008080F0F0808000CBE
:1008C0000E82C2623E1C000E0F0908080C0C0004C8
:1008D00006424242FEBC00040C0808080F0700C094
:1008E000E0B098FCFE8000000000080F0F08003EFA
:1008F0003E222222E2C200060C0808080F0700F878
:10090000FC262266C4800003070C080C07030006BF
:100910000682C2623E1E0000000F0F00000000BCF5
:10092000FE424242FEBC00070F0808080F070038CD
:100930007CC68286FCF80000040C080C070300004B
:100940000030303000000000000606060000000005
:10095000003030300000000020361E0E0000000085
:1009600040E0B0180C06000000000103060C000077
:1009700020202020202000000101010101010000B1
:10098000060C18B0E04000000C060301000000183F
:100990001C86C2663C18000000191900000000F80F
:1009A000FC04E4E4FCF800070F080B0B0B0100F05B
:1009B000F88C868CF8F0000F0F0000000F0F00027B
:1009C000FEFE4242FEBC00080F0F08080F0700F8A9
:1009D000FC060202060C0003070C08080C060002C5
:1009E000FEFE0206FCF800080F0F080C07030002C9
:1009F000FEFE42E2060E00080F0F08080C0E000271
:100A0000FEFE42E2060E00080F0F0800000000F88C
:100A1000FC068282868C0003070C0808070F00FE84
:100A2000FE404040FEFE000F0F0000000F0F0000D0
:100A30000002FEFE0200000000080F0F0800000088
:100A4000000002FEFE0200070F08080F0700000268
:100A5000FEFE60F09E0E00080F0F00000F0F000258
:100A6000FEFE0200000000080F0F08080C0E00FE3A
:100A7000FE38E038FEFE000F0F0000000F0F00FEF2
:100A8000FE38E080FEFE000F0F0000030F0F00F89D
:100A9000FC060206FCF80003070C080C0703000222
:100AA000FEFE42427E3C00080F0F0800000000FCE2
:100AB000FE020202FEFC00070F080E3C3F27000268
:100AC000FEFE42C6FC3800080F0F00000F0F001C8E
:100AD0003E6242C28E0C00060E0808080F07000E88
:100AE0000602FEFE02060E0000080F0F080000FEC0
:100AF000FE000000FEFE00070F0808080F0700FEBA
:100B0000FE000000FEFE000103060C06030100FECD
:100B1000FE00F800FEFE00030F0E030E0F0300069A
:100B20009EF8F0F89E06000E0F0100010F0E000067
:100B30003E7EC0C07E3E000000080F0F0800000689
:100B400082C262321E0E000E0F090808080C000057
:100B500000FEFE0202000000000F0F080800001C4B
:100B60003870E0C0800000000000000103070000B2
:100B7000000202FEFE0000000008080F0F0000083F
:100B80000C0603060C080000000000000000000036
:100B90000000000000000030303030303030000005
:100BA0000003070400000000000000000000002017
:100BB000B09090F0E00000070F0808070F0800024F
:100BC000FEFE1030E0C000000F0F080C070300C04D
:100BD000E030101030200003070C08080C0400C09F
:100BE000E03012FEFE0000070F0808070F0800C0E3
:100BF000E0B090B0E0C00003070C08080C0400004F
:100C000020FCFE220E0C0000080F0F08000000E080
:100C1000F01010E0F01000133724243F1F000002F2
:100C2000FEFE2010F0E000080F0F00000F0F000084
:100C30000010F6F60000000000080F0F080000008A
:100C4000000010F6F60000183820203F1F000002B8
:100C5000FEFEC0E0301000080F0F00010F0E000074
:100C60000002FEFE0000000000080F0F080000F068
:100C7000E030E030F0E0000F0F0007000F0F001031
:100C8000F0E01030E0C000000F0F00000F0F00C0B8
:100C9000E0301030E0C00003070C080C0703001020
:100CA000F0E01010F0E000203F3F28080F0700E0C0
:100CB000F01010E0F01000070F08283F3F20001050
:100CC000F0E03010706000080F0F080000000020F6
:100CD00070D09090302000040C0808090F06001016
:100CE00010FCFE101000000000070F080C0400F0BC
:100CF000F00000F0F00000070F0808070F080000E0
:100D0000F0F00000F0F0000003070C0C070300F007
:100D1000F000C000F0F000070F0C070C0F070030C8
:100D200070C080C07030000C0F0301030F0C00F086
:100D3000F0000000F0F00013372424243F1F00309F
:100D4000301090D07030000C0E0B09080C0C000015
:100D500040E0BE1F0100000000000F1F1000000057
:100D60000000FFFF0000000000003F3F0000000007
:100D700000011FBEE040000000101F0F000000082F
:100D80000C040C080C0400000000000000000080AF
:100D9000C0603060C080000707040404070700003B
:100DA00011241FBECFEFD8E0DEBFCDBF21E0A0E011
:100DB000B1E001C01D92AE3BB207E1F70E941735CA
:100DC0000C940F3D1DC95D98559A80FD5A9A80FF7D
:100DD0005A98529A519A589867FD599A67FF5998AC
:100DE000589A589866FD599A66FF5998589A589893
:100DF00065FD599A65FF5998589A589864FD599A13
:100E000064FF5998589A589863FD599A63FF599806
:100E1000589A589862FD599A62FF5998589A58986A
:100E200061FD599A61FF5998589A589860FD599AEE
:100E300060FF5998589A5D9A589859980895609308
:100E40003F018093040186958093A501660F660F8C
:100E5000660F60930F01089580913F018093010117
:100E60008091A50180930301089580910301609111
:100E70000101880FE4CF0895CF93C82F692F81E037
:100E8000A2DF6C2F81E09FDFCF910895682F80E073
:100E90009ACF08958DE0A6D48AE0A4C40895109254
:100EA000A50160E080E0CBDFF5CF0895CF93DF931D
:100EB0008AE2ECDF80E090E0DFDF80EA90E0DCDFD8
:100EC0008BE2E4DF80E090E0D7DF80E890E0D4DFE1
:100ED0008CE2DCDFC0E0A895D0EA80E090E0CCDFD7
:100EE000D150D9F7CF5FC038B1F7D9DFDF91CF91BB
:100EF00008955B98589859985D98539A509A519ACA
:100F0000559AA1D45D9A559A5A98529A84E1A2D4DE
:100F10005B9A84E19FD48AE09DD481E1B7DF84E0CD
:100F200099D486E2B3DF64E081E04DDF81EBAEDF90
:100F30006EE081E048DF64E181E045DF80ECA6DF20
:100F400080E09EE099DF81ECA1DF65E081E03BDF9E
:100F500085EC9CDF80E498E38FDF8AE397DF65E030
:100F600081E031DF86E392DF6CE381E02CDF84EB0C
:100F70008DDF60E081E027DF99DF89E287DF8AE0AB
:100F800069C4089581E08093A50160E082E057DFA5
:100F900081CF089582E08093A50160E084E04FDF77
:100FA00079CF089583E08093A50160E086E047DF74
:100FB00071CF08950895582F28E030E090E841E07F
:100FC00080E0642F652309F0892B440F969521500A
:100FD000310921153105A9F70895A7E0B0E0E3EF45
:100FE000F7E00C944E3C9F838E83142FA02EB12CDF
:100FF000462E512CC2018A0D9B1D813A91050CF0A1
:1010000091C08E2D90E0AC01410F511D413851052A
:101010000CF088C0EA94E10EE7FE02C05FE7E52E1F
:10102000322F3270F32E21FF13C0019743E09595C4
:1010300087954A95E1F78A9DA0018B9D500D9A9D59
:10104000500D11248E819F81840F951F9F838E8365
:1010500095E0490E511C21702B83950121503109D7
:101060003D832C83E11608F45DC0C12CD12C812F67
:1010700090E027E7822E912C881A990A2EE730E01B
:10108000281B390B3A8329836C807D808E819F8158
:10109000680E791EC01608F034C08BE2F7DEC4017A
:1010A000EBDE89819A81E8DE8AE2F0DE12012C0C07
:1010B0003D1CC101E1DEC101DFDE8CE2E7DE3B81E8
:1010C000332321F0F301EC19FD0904C0EE81FF8107
:1010D000EC0DFD1D3490FF2019F0832D6CDF382EB0
:1010E00038E0232E37FE03C08FEF9FEF02C080E071
:1010F00090E0C2DE330C2A94A9F78FEFC81AD80A01
:10110000C9CFFF2039F0EE81FF81EA19FB09FF8387
:10111000EE8306C02E813F812A0D3B1D3F832E8327
:10112000185FA0CF2796E2E10C946A3CEF920F93F0
:10113000282F8F7330E6839FC001112481509D4F6B
:1011400026FF02C038E001C038E53093100127FFC8
:1011500003C01092000108C020E2209300012091FA
:1011600010012D5D2093100160E2E62E08E120E0E1
:10117000409100016091100130DF0F91EF900895D0
:10118000EF920F93262FFC01649131964491319692
:1011900004913196E49050910001450F5091100157
:1011A000650F04961ADF0F91EF90089560E0E8CF85
:1011B0000895EF920F93CF93C82F80913F018F5FD7
:1011C00080933F0140910401440F440F440F20E1FC
:1011D000C29FC001112470E1E72E08E020E0609179
:1011E0000F0181569A4FF9DE80910F01885F80933D
:1011F0000F014C2F50E0FA013197EA30F105E0F48D
:10120000EC5CFF4F0C949E3B8EE305C08CE7EAD26A
:101210008CE313C08CE7E6D28CE70FC082E50DC0EB
:101220008DE20BC085E709C08FE4DCD288E6DAD214
:101230008DE603C08CE401C08C2FD4D2A895CF9149
:101240000F91EF9008958F5CB4CF089580E2B1CFF5
:101250000895A1E0B0E0EFE2F9E00C945E3C1816CE
:101260002CF48983F3DF89818150F9CF2196E2E064
:101270000C947A3C90913F0184E1891BEACF089558
:10128000A1E0B0E0E6E4F9E00C945E3C8983F2DF93
:101290009091A5019F5F9093A5016981983038F0E6
:1012A00087E08093A50181E08093420102C0109203
:1012B00042018091A501880FC2DDECDD2196E2E0BC
:1012C0000C947A3CDDDFADD38091A501833008F02A
:1012D000E1CD0895E4DDCEDFE2CD089553DECADF2F
:1012E00051CE08958DE365CF0895CF93DF93EC0140
:1012F0008991882311F05DDFFBCFDF91CF910895B5
:10130000CF93DF93EC01FE018491982F9F7719F022
:1013100050DF2196F8CFDF91CF910895CF93DF93DF
:10132000EC01CE010E94D13C982F9F7719F041DF4C
:101330002196F7CFDF91CF910895EF920F93FC01A3
:1013400004913196E490029648DE0F91EF90089553
:101350000F938EE991E0E2DF409189014D3F64F403
:1013600060917701709178018091790190917A0173
:1013700003E026E4F9D002C08FE31BDF0F9108954C
:1013800090911D019F70923071F49CDF82E890E093
:10139000C5DFE0914001F091410122E044E06FEFB0
:1013A00084819581D0C1089597FF09C08F939F9341
:1013B0008DE2FFDE9F918F91909581959F4F65E221
:1013C00071E04AE050E00E94AE3C8FCFEDDF01C0FB
:1013D000EBDF3CCFEF92FF920F931F93182F062F56
:1013E000F42E80E891E09ADFEE24E0914001F09144
:1013F00041018685E81611F4812F09C08485E8161D
:1014000011F4802F04C08585E81611F48F2DD1DEEC
:10141000E3948E2D833049F71F910F91FF90EF9049
:101420000895EF92FF920F931F93182F062FF42E1B
:1014300080E048DF0BDF86E891E070DF4F2D602F02
:10144000812FC8DF1F910F91FF90EF900895682FB3
:1014500080E092E0662309F491E0623009F481E0D3
:1014600008950F93082FE6EAF1E0880F880FE80F40
:10147000F11D6081718182819381643671058105DE
:10148000910570F42091020127FD0AC0802FDFDF53
:10149000692F0E9445256EEF23E044E054D104C03B
:1014A0004FEF04E024E060D0D1DE0F910895863044
:1014B00058F4E9E9F1E0E80FF11DE80FF11D808132
:1014C000918163E04BD1C2CE08951F93182F809174
:1014D0007301882319F0BADE80E06BDE53DD87E705
:1014E00091E01CDF812F82958F70E1DF812F8F705B
:1014F000DEDF1F9108958091110182958F7018D0C1
:101500008091110183701AD080911101DECFEDE836
:10151000F1E0E80FF11D0895CF93F9DF9081C681C6
:10152000C91710F405D001C011D090DECF910895F5
:10153000EEDF8F93808187DE8F9100C08F9385E4EB
:1015400091E0ECDE8F91E3DF86817DCEE0DF8F934B
:10155000868179DE8F9100C08F9381E491E0DEDE99
:101560008F91D5DF80816FCEAEE0B0E0EAEBFAE09C
:101570000C944E3C342E222E6B017C01102F1F70D8
:1015800080E389838A838B838C838D838E83F7FEAC
:101590000BC08DE20EDEF094E094D094C094C11C98
:1015A000D11CE11CF11C04C005FF02C08BE201DE6E
:1015B000133009F4B6C0143009F4BAC0153051F034
:1015C000163081F01730B1F074E6872E912CA12CE3
:1015D000B12C17C060EA862E66E8962EAA24A39442
:1015E000B12C0FC050E4852E52E4952E5FE0A52E5D
:1015F000B12C07C040E8842E46E9942E48E9A42E79
:10160000B12C3AE0432E512C612C712CC814D90412
:10161000EA04FB0470F0C701B6016B5F7F4F8F4F88
:101620009F4FA30192010E94603B69017A013394AC
:10163000EDCF81E1830D9BEA899F912C1124969433
:1016400086E08319899F812C11248694982D990F07
:10165000980D882E891A5E0187E0A80EB11C2AE039
:10166000A501C701B6010E948D3CF5010190002043
:10167000E9F7CF0101977C01EA18FB08AE2C67015E
:10168000DD24282D30E02C5F3F4F2C153D051CF448
:10169000939493E0890E892D90E0865C9F4F0E9481
:1016A000D13CB82E04FF04C0A11610F41E1901C0CD
:1016B00010E0AE2CA818A10E1A1424F08EE279DDE9
:1016C000182D1E19811002C028EFA22E912C012F77
:1016D00010E0C00ED11EEA2CFF24E7FCF094E92DA7
:1016E000F0E0EC15FD05A4F43696E01BF10B81E06B
:1016F00090E08C0F9D1FE80FF91F80815ADD9394B5
:10170000892D90E08E159F0551F78EE252DDE7CFCF
:10171000BB2011F08B2D4DDD222089F0822D49DD7B
:101720000EC098EE892E93E0992EA12CB12C69CF92
:1017300080E1882E87E2982EA12CB12C62CF2E96C4
:10174000E2E10C946A3C0F93362FBC0180E090E0FC
:10175000022F242F432F08DF0F9108950F93062F98
:10176000BC0180E090E026E54DEFFEDE0F9108958C
:101770000F93042F28E440E0F7DE8AE71ADD66DDE8
:101780000F910895E82FF0E0EE0FFF1FEC55FE4F8C
:101790008591949120910001420F20911001620FD8
:1017A00020E0CBCD0895CF93DF93C82FD62FE091C3
:1017B0004001F091410148E16EE18685E3DFE0916F
:1017C0004001F09141014D2F6C2F8485DBDFE091CA
:1017D0004001F091410140E06EE18585D3DFDF916A
:1017E000CF9108958F932F932AE080953B9A089488
:1017F00010F4439802C0439A000020D027D0869569
:101800002A95B1F72F918F91089503D002D001D07E
:1018100000D000D003D002D001D000D000D003D03F
:1018200002D001D000D000D0A89503D002D001D0C2
:1018300000D000D003D002D001D000D000D003D01F
:1018400002D001D000D000D003D002D001D000D00F
:101850000000089590E0893C28F0885C48EC849F63
:10186000C0011124009709F4089520918100277088
:1018700019F0DADF0197F6CF8130910519F0029760
:101880003EE303C037E180E090E02091B200230FF7
:101890002093B30042E04093700027E023BF889577
:1018A00026E023BF10927000A895DCCF8F9384E0D0
:1018B000D1DF07C08F9382E0CDDF03C08F9381E03B
:1018C000C9DF8F911F93182F106410937C00E12FB4
:1018D000E07880913001E81759F0E0933001AEDFF5
:1018E0008EE980937A0083E083BF889582E083BF8E
:1018F00020E030E0A901E0E01FC08EE980937A008B
:1019000083E083BF889582E083BF60917800709107
:101910007900260F371F411D511DE43061F480917D
:101920003201803041F084E02030380720F417FD88
:1019300002C01068CACFEF5F80912F01E817E8F26C
:10194000609133017091340117FF04C0609131013F
:101950007091320180E090E00E941E3B2FEF33E057
:1019600040E050E00E94603BB901CA0120912F0184
:1019700030E040E050E00E94603BC9011F910895B3
:101980009B01281B390B50F0C9010895BC018091BF
:101990003301909134016817790718F4861B970B6F
:1019A000089580E090E00895EF92FF920F931F93C7
:1019B000CF93DF93F82EE92EC5E64F9B05C0CF2DC0
:1019C000DE2D05E510E019C081E044DFC150A9F724
:1019D000F6CF82E03FDF000F4F9B0F5F0F730F3397
:1019E00079F4111103C0CF2DDE2D14E01F5F183CD8
:1019F00090F4A8951C161D0644F0D7FFEACF0BC043
:101A00000111F7CF1123A9F306C02A972097A9F750
:101A1000CFEFDFEFF2CF812FCDB7DEB7E6E00C944A
:101A2000763CCF9319DAC82F809142018823D1F0F8
:101A3000813051F4C73041F463E18EE000DA8BE28B
:101A4000B8DB63E18EE0FBD980E49FE1ADDFC73016
:101A500041F480914201813021F460E08EE0EFD9C1
:101A600009DC03DACF91089587E593E00E94D13C29
:101A7000382F88E593E00E94D13C20913701230F55
:101A800030913801381F20931A0130931B0183E0F5
:101A9000283E380720F0C901885E934002C080E0EC
:101AA00090E062E370E00E94393B683008F067E044
:101AB000E7E8F2E0E60FF11DE60FF11D45915591C3
:101AC0002591359162E3681B421B530B649FC00153
:101AD000659F900D1124499662E370E00E94393BA6
:101AE000620F731F709376016093750189E593E02F
:101AF0000E94D13C992787FD9095609137017091A4
:101B00003801860F971F9093320180933101909393
:101B10007201809371010895CF93DF9324E130E047
:101B2000B9010E94393BDC01E9E9F2E0E60FF71F59
:101B3000E60FF71FC591D591459155914C1B5D0B53
:101B40004A9FC0014B9F900D5A9F900D1124B901DF
:101B50000E94393B6C0F7D1FCB01DF91CF9108951F
:101B600018951895CF93DF9330911C01A0914001F7
:101B7000B0914101EDE8F1E080E090E08317C0F41E
:101B800041911C962C911C97421731F0EC01C357E0
:101B9000DE4F4E81421302C00196F0CFFC01EE0FE2
:101BA000FF1FE756FE4F20813181293E334008F068
:101BB00084E1DF91CF91089510921E0110921C01D3
:101BC00010926C011092520110921D0110923E0170
:101BD00010927301109257011092580110925901FE
:101BE0001092870182E08093880110920201109286
:101BF00086011092850110927B0110927C01109257
:101C00007D0110927E0181EF80938A0108958FE417
:101C1000E9DD86E4E7DD86E4E5DD3CD95E98F8DDC4
:101C200080E090E0C1CE0895A1E0B0E0EAE1FEE0FE
:101C30000C945C3C98E097B998B9E82FF0E0EF5825
:101C4000FD4F949195B9262F281BE20FF11D27FD1A
:101C5000FA95E491E92BE4B9698334DE8C0169815A
:101C6000862F30DE2091330130913401369527954F
:101C7000A90143505109B801625E7F4F46175707CB
:101C800078F4255E3F4F0217130750F4BC01625EE3
:101C90007F4F4617570720F441E08217930708F05B
:101CA00040E014B8842F2196E4E00C94783CCF9364
:101CB00061E080E0B9DFC82F62E080E0B5DFC80FE7
:101CC00062E081E0B1DF8C0FCF910895A3E1B0E035
:101CD000ECE6FEE00C944E3CB82E10921E01807F84
:101CE000A9F4E5DF833009F0B9C3E0D887E692E0D4
:101CF00015DB48D98FE35DDA80ED97E055DE8B3058
:101D0000C0F4D4D883E191E009DBA8C306E910E070
:101D1000CDD886ED91E002DBCADF833021F41F5F6E
:101D2000143010F006C010E088E294DD015081F715
:101D300063C028D90E9454208FEC90E0EFDA60E075
:101D400081E393E00E94DE3C60E082E393E00E9446
:101D5000DE3C60E080E393E00E94DE3C60E082E0F5
:101D60000E9445256C019A83898361E082E00E948C
:101D700045257C019C838B8360E081E00E944525A2
:101D80008C019E838D8323E040E26EEFC601DBDC95
:101D900023E040E26EEFC701D6DC23E044E06EEFC3
:101DA000C801D1DC2AE5C216D10424F024E130E0D8
:101DB0003A832983698181E393E00E94DE3C8AE5CE
:101DC000E816F10424F024E130E03C832B836B819E
:101DD00082E393E00E94DE3C0A35110524F024E101
:101DE00030E03E832D836D8180E393E00E94DE3CF2
:101DF00082E08093420115DE9B2D9F709F8791307A
:101E000009F04DC001E010E058EB252E52ED352EC3
:101E100057E4452E512C62E0962E78E0A72EECE098
:101E20006E2EF4ECCF2EF6E3DF2EE12CF12C39C030
:101E3000839423E0281558F151DA4CDA84E5B9D9B6
:101E4000C801BDDA03DAE1E0BE1230C082E091E001
:101E500065DA64E080913701909138017FDC92D897
:101E60008DEF90E05BDA8091750190917601A7DAB1
:101E70008EEB80932F01A7B8A8B814B815B888EED8
:101E800093E092DDF4E0BF1699F28B3088F288EE91
:101E900093E08ADD0F5F1F4F0830110511F418E73A
:101EA0001CC1812CB02EB0E27B2EC6CFF2E0BF1257
:101EB00041C02091330130913401A8E5BBE10E947B
:101EC000A43BA70196010E94823B81E085B985E091
:101ED00084B980E0288B398B4A8B5B8BE7DC2889BF
:101EE00039894A895B89821B930B9A83898381E1B3
:101EF00084B980E0288B398B4A8B5B8BD7DC2889AF
:101F000039894A895B89821B930B9C838B8384E08C
:101F100085B984E184B981E0288B398B4A8B5B8B4E
:101F2000C5DC28893989821B930B9E838D8387EEBC
:101F300090E0B7C093E0B91229C095B8EAE0E4B9DF
:101F400080E0B4DC2091330130913401369527953F
:101F500038872F83821B930B9A838983F2E2F4B92B
:101F600080E0A4DC2F813885821B930B9C838B83BC
:101F7000A5B828E224B981E099DC2F813885821B3D
:101F8000930B9E838D8389ED90E08BC084E0B81223
:101F900007C087E592E0C2D98ADE81115CC287C0A2
:101FA00095E0B91213C015B894B880E07FDC9A832D
:101FB0008983A4B881E07ADC9C838B8374B882E047
:101FC00075DC9E838D8389EF90E06BC0E6E0BE12E6
:101FD00027C094B895B880E069DC20913301309136
:101FE0003401821B930B9A838983A4B8A5B881E03E
:101FF0005DDC2091330130913401821B930B9C8373
:102000008B8374B875B882E051DC20913301309134
:102010003401821B930B9E838D8385EF90E041C03A
:10202000F7E0BF1240C02091330130913401A8E5A0
:10203000BBE10E94A43BA20191010E94603B95B8C4
:1020400083E084B980E0288B398B4A8B5B8B2EDC54
:10205000288939894A895B89821B930B9A838983F2
:10206000A5B864B881E0288B398B4A8B5B8B1EDC6A
:10207000288939894A895B89821B930B9C838B83CE
:1020800075B890E394B982E0288B398B4A8B5B8BCF
:102090000DDC28893989821B930B9E838D8383ED08
:1020A00090E03CD904C0E1E0BE1609F4E4CE0E9401
:1020B000C20789819A8178D9C9D88B819C8174D9CA
:1020C000C5D88D819E8170D9D6CE08D987E592E09A
:1020D00025D984E6BFDB115019F0E9DD8111F5CF78
:1020E0000E94560788EC90E019D923E044E06FEF96
:1020F000809135019091360126DB0E94C20781EC68
:1021000090E00CD923E044E06FEF80913C01909186
:102110003D0119DB82E08093420183DC10921E01B5
:102120000E9456078DEB90E0F9D860E082E00E94B3
:10213000FA1C80907F0190908001A0908101B09066
:1021400082019C868B8661E082E00E94FA1CC0902E
:102150007F01D0908001E0908101F0908201DE86C5
:10216000CD8660E081E00E94FA1C00917F01109111
:1021700080011E830D8362E080E00E94FA1C809142
:102180007F01909180019C838B8362E081E00E94BB
:10219000FA1C80917F01909180019A87898761E084
:1021A00080E00E94FA1C80917F01909180019A83C7
:1021B0008983EF85E13021F020913B01223021F429
:1021C000029698878F8304C098878F8310923B0173
:1021D000C401FED8C601FCD8B801882777FD8095D8
:1021E000982F03E026E444EFBFD96E01FFE0CF0E45
:1021F000D11CFE013196819191910A97853B910501
:10220000E8F4EC15FD05B9F7A0E5EA2EA3E0FA2EF7
:102210008E010F5F1F4FF80160810E5F1F4F6E5ED2
:10222000C7010E94DE3CFFEFEF1AFF0A0C151D05E7
:1022300091F70E94C20783EC91E070D882E080930E
:102240004201EFDB0E94C0312F85213029F08091BF
:102250003B01823009F0E6C00E94560780E00E94F0
:10226000230989E691E05AD882E00E94230982E39B
:1022700090E054D8E0E4BE2E10E0FAE0CF2ED12C4E
:10228000E12CF12C99DC10921E0160E082E00E94AA
:10229000FA1C009189016091770170917801809119
:1022A000790190917A01073F44F4A70196010E94B9
:1022B000603B0F5FB901CA01F6CF009389016093BB
:1022C0007701709378018093790190937A01073FA9
:1022D00009F091C0DC01CB0180569109A109B10937
:1022E00080399545A105B10508F085C060918B0145
:1022F00070918C01CB018B569F4F8B32914008F02F
:102300007AC01F5F153008F477C087E593E00E941C
:10231000EC3C0E9456078BE290E000D880918B0144
:1023200090918C0141D8A0DB88E088B989E087B919
:1023300080E284B982E0C6DA853D9340DCF714B8C8
:10234000109232011092310182E0BCDA8C0180914E
:10235000710190917201909332018093310182E07A
:10236000B1DA7C01EE0CFF1C1092320110923101A7
:1023700082E0A8DAC0907101D0907201D09232014F
:10238000C0923101080F191F0E191F090E94C207C0
:1023900084E290E00E948E0989E593E00E94D13C9E
:1023A00073E0B72EB80E9601D8010E94B33B970197
:1023B000442737FD4095542F0E94823BB20E6B2D6F
:1023C00089E593E00E94DE3C8B2D992787FD90954F
:1023D0000E94D40949DB82E08093420122DB109203
:1023E0003B0180E593E00E94D13C682F83E593E0B8
:1023F0000E94DE3C17C010E00E94C2076091770186
:10240000709178018091790190917A0104E026E43D
:1024100040918901A9D80E943A0988E21BDABA944E
:1024200009F030CF8EE180932F0180E00E94D134FB
:102430000E94560783E191E00E948E090E94C20724
:102440008EE492E00E948E0910921E0182E0809339
:102450004201E7DA03C052E0852E29CE6396E2E11D
:102460000C946A3C80913B0181110DC080E593E0A2
:102470000E94D13C61E0680F83E593E00E94DE3C5E
:1024800081E080933B010895CF92DF92FF920F93FA
:102490001F93CF93DF931F92CDB7DEB7E82FF0E005
:1024A000EC58FD4FE491E8B9E860E7B915B8E62FBC
:1024B000F0E0EF58FD4FE491E4B908E813E1FE2E97
:1024C000FF0C862F6983F2D96C01F4B869818017FB
:1024D000910710F48C01F5CF0097E9F00E94D20724
:1024E00089E491E00E948E09D60120EA36E841E0B5
:1024F00050E00E94B93B28E937EB40E050E00E94F1
:10250000603BDA01C90122E041E467EF1CD988E0B1
:1025100087B988B914B80F90DF91CF911F910F91AF
:10252000FF90DF90CF9008950F931F93CF93DF9389
:1025300085E0C8D985E0C2D9EC018C01000F111FDC
:10254000000F111F0A561F4F10923901043883E003
:10255000180750F487EB91E00E948E090E943A0917
:1025600081E08093390123C086EC91E00E948E09BE
:1025700062E0C801F3D80E942609CA3F86E0D80766
:1025800080F4C333D64050F480EC92E00E948E0970
:102590000E943A098DEC5ED93ADB09C087EC92E0E3
:1025A00002C083EC91E00E948E090E943A09DF91FB
:1025B000CF911F910F9108959C01261B370BB0E01E
:1025C000A0E0B9016A0F711D672F7727A20F260FB0
:1025D000371FBA016B0F711D672F7727B40FFB01EF
:1025E000EE0FFF1F4E0F5F1F6B3E28F482179307FD
:1025F00040F7CA01089580E090E00895ADE1B0E0B1
:10260000E4E0F3E10C944E3C982E862E242EA895FF
:10261000E62FF0E0EF58FD4F24912E87220F2F8BED
:10262000339634913A8BE42FF0E0EF58FD4F44910C
:102630004B83142F110F33960491E82FF0E0EF58DD
:10264000FD4F3490532D550F5F87339684918D83C2
:1026500088608E8338603C8345B9642E9E85692AE4
:1026600064B887B9AD81A8B9862F28D92C018B8190
:10267000812B85B97E84712A74B8882D1FD9BE85B7
:10268000B4B9882D1BD99A83898314B8CCD815B8CE
:1026900064B8882D13D9B20173D96C01EC81E7B904
:1026A00088E088B9FB81F329FF83F5B9F4B9892D56
:1026B00005D96CD97C0115B8B6D835B8892DFED8A6
:1026C00065D99D878C8734B8892DF8D85FD95C018E
:1026D0006C857D85C70154D9803221E0920730F4A2
:1026E00030E2C31631E0D30608F49EC54C855D8503
:1026F000C40ED51E840D951DC816D90618F05D862A
:102700004C8602C0A982BA822091520180916C014C
:1027100090E0820F911D02974CF0213009F084C5A2
:1027200090914F018091690198137EC5512F5329D3
:102730005B878C859D858437910508F482C1880F5D
:10274000991F4496A981BA81A817B90708F079C1E1
:10275000BE81B7B9ED81E8B974B8882DABD86C01EA
:10276000822DB0D87C0115B9882DA4D89601295A9C
:102770003D4F2817390708F0A2C088E088B9FC81CE
:10278000F7B92B8524B925B9822D94D888349F4078
:1027900028F085E080931E0182E204C085E08093EA
:1027A0001E0184E280931D01D0924801C09247012E
:1027B000B701C601F0D890934E0180934D01960168
:1027C000A0E1B7E20E94A43B2091180130911901C9
:1027D00040E050E00E94603B30934A012093490161
:1027E0008F89812B84B915B84E8147B95D8158B95D
:1027F000822D68D87C01882D5DD8B701CCD8909304
:102800004C0180934B0120911D012F70243069F5FC
:102810004091490150914A0160914D0170914E01E2
:10282000CBDE0097F1F014B98E819A89892B87B994
:10283000882D40D87C0188E087B99701A0E1B7E2F4
:102840000E94A43B20913C0130913D0140E050E0CA
:102850000E94603BA901B70180914B0190914C010E
:10286000ABDE909348018093470180911D018F70EA
:10287000843009F4D0C488E088B9AC810A2B07B948
:1028800034B8BF81B5B9892D19D86C017FD88C01B6
:10289000882D18D8E0901F01F0902001BC01C601DE
:1028A0007AD89C01D7010E94A43B980140E050E0F7
:1028B0000E94603B3093480120934701ACC488E0FC
:1028C00088B9EC81E7B9FB85F4B9F5B9892D0E9487
:1028D0005A0C6C01822D0E94620C7C0135B8892D46
:1028E0000E945A0C895A9D4F8C159D0508F09CC476
:1028F0002D8128B93E8137B9822D0E945A0C813D25
:10290000934028F485E080931E0182E304C085E0B3
:1029100080931E0184E380931D01B601C7013BD85B
:102920009093680180936701C60130D89C01A0E1B3
:10293000B7E20E94A43B20911F013091200140E0AA
:1029400050E00E94603B309364012093630178E083
:10295000F72EF8B85C8157B98F85812B84B985B97A
:10296000892D0E94620C6C01822D0E945A0CB601C6
:1029700012D8909366018093650120911D012F70FC
:10298000243091F540916301509164016091670199
:102990007091680111DE009719F115B914B98D8194
:1029A00088B98C819E81892B87B9892D0E945A0C08
:1029B0000E94C60C6C01F7B89C01A0E1B7E20E942E
:1029C000A43B209135013091360140E050E00E9457
:1029D000603BA901B6018091650190916601ECDD33
:1029E000909362018093610180911D018F7084300A
:1029F00009F4EDC18D81802B88B9AE810A2B07B90E
:102A000015B8BF81B4B9892D0E945E0C7C01882D58
:102A10000E94620C6C010091180110911901BC0117
:102A2000C7010E94CB0C9C01D8010E94A43B9601D7
:102A300040E050E00E94603B3093620120936101CE
:102A4000C6C188E088B9EC81E7B935B8FB85F4B92F
:102A5000892D0E945E0C9C8B8B8B0E94C60C9A87E2
:102A60008987822D0E94620C998B888B49805A80BD
:102A700024E6420E511C49855A8569817A814416A3
:102A80005506E0F4CA010E94CB0C7C0180911F0125
:102A9000909120019C0140E050E060E871EA83E001
:102AA0009CE10E94603BD7010E94B93BA889B9898B
:102AB0006D01E12CF12CA701960123C089859A852F
:102AC0000E94CB0C7C01BF81B4B9892D0E945E0CA1
:102AD0009C8B8B8B0E94C60C9A878987822D0E94C3
:102AE000620C998B888BBC01C7010E94CB0C9C01A6
:102AF000A4E6B0E00E94A43BE889F9899F0140E088
:102B000050E00E94603B69017A0114B815B8FD815C
:102B1000F8B92E8127B981E00E942A0C64B8882D6B
:102B20000E945E0C8F359D4008F457C174B8882D03
:102B30000E945A0C5C01822D0E94620C9E8B8D8B30
:102B4000892D0E94620C9B8F8A8F4D895E89413D41
:102B5000574008F4CFC015B9882D0E945A0C811532
:102B6000944098F080911E01843078F48AE080933C
:102B70001E016D897E898A8D9B8D0E94CB0C90935E
:102B800062018093610121E02DC484E080931E01E5
:102B90008DE080931D01E981FA818501EA15FB052D
:102BA00010F40E1B1F0B4090180150901901612C5E
:102BB000712C60E871EA83E09CE1A30192010E941C
:102BC000603BD8010E94B93B4D895E898A0120E0B3
:102BD00030E0A90198010E94603B80916C0188233C
:102BE00069F080915D0190915E01A0915F01B091CB
:102BF000600182179307A407B50708F520935D01CC
:102C000030935E0140935F01509360019501A0E114
:102C1000B7E20E94A43BA30192010E94603B309363
:102C20006401209363016D897E898A8D9B8D0E944A
:102C3000CB0C909362018093610121E001C020E000
:102C400080915D0190915E01A0915F01B091600162
:102C50008C159D05AE05BF0538F5C0925D01D0927B
:102C60005E01E0925F01F0926001688979898B8949
:102C70009C890E94CB0C909362018093610129850D
:102C80003A85A0E1B7E20E94A43B20911F01309158
:102C9000200140E050E00E94603B205F384D3093BF
:102CA00064012093630103C0222309F49BC3C090F5
:102CB0001801D0901901E12CF12C29813A81A0E171
:102CC000B7E20E94A43BA70196010E94603B3093AB
:102CD0006601209365012C853D85A0E1B7E20E9445
:102CE000A43BA70196010E94603B309368012093AA
:102CF000670149CF89819A818136910508F06DC0BD
:102D000091EDA91697E0B90608F467C085E08093B5
:102D10001E0182E180931D01C50186509F4FAA8D3F
:102D2000BB8D8A179B0720F483E180931D0116C099
:102D30000091180110911901B5018A8D9B8D0E9497
:102D4000CB0C9C01D8010E94A43B950140E050E0CF
:102D50000E94603B3093620120936101BA89B77091
:102D6000EB2E822D806480937C005BE0F52ECC24DA
:102D7000C394D12C0FEF13E0A89561E08B8157D558
:102D800074B886B18E21E9F3EE85E4B980917A00BA
:102D9000806480937A0080917A0086FDFCCF8091D8
:102DA0007800909179009801281B390BC20ED31E30
:102DB000FA9411F7C601880F991F880F991F69E0CF
:102DC00070E00E94393B70936801609367018091C5
:102DD0006C018F5F80936C01D6CE74B815B9882DC5
:102DE0000E945E0C6C01822D0E94620C9A8789877A
:102DF0000E94C60C7C014C145D04C0F469817A8188
:102E0000C6010E94CB0C8C01809118019091190190
:102E10009C0140E050E060E871EA83E09CE10E94A0
:102E2000603BD8010E94B93B970120C064B83B8148
:102E300035B9882D0E945E0C6C01822D0E94620CB7
:102E40009A8789870E94C60C8C0149815A81C601E4
:102E50004C155D0510F4841B950BB8010E94CB0C3A
:102E60009C01A4E6B0E00E94A43B980140E050E041
:102E70000E94603B29013A015C8157B988E088B91A
:102E80008F8184B985B9892D0E945E0C8C01822DB9
:102E90000E94620C5C01882D0E94620C7C01003350
:102EA00091E1190708F0BDC135B8892D0E945E0C6B
:102EB0009C0134B8892D2C8F3D8F0E945E0CBC0183
:102EC00015B881E0688F798F0E942A0C35B8892D5A
:102ED0000E945E0C688D798D2C8D3D8D603476401E
:102EE00008F05AC08133914108F456C0C8018A568F
:102EF0009F4F2817390708F04FC086E080931E01C6
:102F0000809152018F5F80935201B701C5010E94E9
:102F1000CB0C9093480180934701B701C8010E94F0
:102F2000CB0C90934E0180934D0114B815B8EA89EB
:102F3000E8B981E00E942A0C34B8892D0E945E0C09
:102F4000853F910508F05CC2FF81F4B9822D0E9493
:102F50005E0C813D934008F453C2892D0E94620C9F
:102F60008D3D924008F44CC234B8892D0E945E0C0D
:102F70008D3D924008F444C235B881E00E942A0C8D
:102F800015B8892D0E945E0C853F910508F038C266
:102F900087E080931E0134C25C8157B98B8184B96C
:102FA00085B981E00E942A0C9B8594B995B9892D39
:102FB0000E945E0C5C010E94C60C998B888B822D4E
:102FC0000E94620C7C010E94C60C98878F83882D1A
:102FD0000E94620C8C01AF81B885AE3FB94008F405
:102FE000B4C084E080931E018CE080931D01698150
:102FF0007A81888999890E94CB0C5C0180911F019C
:10300000909120019C0140E050E060E871EA83E08B
:103010009CE10E94603BD5010E94B93BAF81B8851D
:103020009D0140E050E00E94603B80915201882366
:1030300069F08091430190914401A0914501B091C4
:10304000460182179307A407B50720F52093430193
:10305000309344014093450150934601B801C701A4
:103060000E94CB0C909348018093470128893989AD
:10307000A0E1B7E20E94A43B20911F013091200102
:1030800040E050E00E94603B30934A0120934901A8
:1030900021E001C020E08091430190914401A09182
:1030A0004501B091460184159505A605B70528F59B
:1030B0004092430150924401609245017092460152
:1030C000B60189859A850E94CB0C90934801809324
:1030D00047019601A0E1B7E20E94A43B20911801AC
:1030E0003091190140E050E00E94603B205F384D74
:1030F00030934A012093490103C0222309F481C17E
:1031000029813A81A0E1B7E20E94A43B20911801F5
:103110003091190140E050E00E94603B30934C0137
:1031200020934B012C853D85A0E1B7E20E94A43B92
:1031300020911F013091200140E050E00E94603B4F
:1031400030934E0120934D015BC1E981FA81E13654
:10315000F10508F066C02889398929343D4008F412
:1031600060C085E080931E0182E080931D01C8014C
:1031700086509F4F8A159B0520F483E080931D01A4
:1031800017C0E0901F01F0902001B801C5010E9416
:10319000CB0C9C01D7010E94A43BA889B9899D0151
:1031A00040E050E00E94603B30934801209347018B
:1031B0000D810770822D806480937C001BE0EE24DB
:1031C000E394F12CA89560E08B8131D3BB85B4B931
:1031D000B5B986B18023E9F734B880917A0080646C
:1031E00080937A0080917A0086FDFCCF80917800F0
:1031F00090917900E80EF91E115021F7C701880F50
:10320000991F880F991F69E070E00E94393B709305
:103210004E0160934D01809152018F5F8093520166
:10322000EFC088E087B988B914B815B888E087B9C5
:10323000E981FA81E73CF14008F4C5C088B93F85CF
:1032400034B918EC0C814E81042B07B981E00E943F
:103250002A0C5C8157B9892D0E94620C429710F0AC
:10326000115099F78F8584B985B961E08B81DFD2E0
:10327000892D0E945E0C6C019F8994B915B8AE81AE
:10328000A7B9BD81B8B960E08B81D1D2882D0E94E9
:103290005E0C0E94C60C8C01EE85E4B9882D0E945C
:1032A000620C7C01892D0E945E0CB7010E94CB0C40
:1032B0005C01882D0E94620C7C01892D0E945E0CAD
:1032C000B7010E94CB0C95012C5E3F4F28173907A0
:1032D00008F47CC088E088B9FC81F7B934B835B807
:1032E00061E08B81A4D2882D0E94620C7C01892D23
:1032F0000E945E0CB7010E94CB0C7C01A816B90697
:1033000050F42F8524B925B9892D0E945E0C9C01AB
:103310008601570110C03F8934B915B84E8147B9AD
:103320005D8158B960E08B8182D2882D0E945E0C4D
:103330000E94C60C9C0188EEA81683E0B80630F403
:10334000C50164E670E00E94393B06C0B50184E027
:10335000769567958A95E1F7C5018759910989386E
:10336000914188F52A153B0570F5C801B3E09695A3
:103370008795BA95E1F7893C910510F088EC90E0CB
:10338000800F911F8A159B05F0F460177107D8F420
:1033900080911E01833018F483E080931E01809198
:1033A0001C01E82FF0E0DF01A357BE4F9C92169658
:1033B0008C92EE0FFF1FE756FE4FB182A0828F5F07
:1033C00080931C0103C0682D892D29D088E087B91E
:1033D00088B914B815B88EE20E94D9086D96E2E15A
:1033E0000C946A3C80916C018F5F80936C01222366
:1033F00069F32092690180926A0190926B01E6CF95
:1034000021E0809152018F5F809352012223F1F2DB
:1034100020924F019092500180925101D7CFA0E0AD
:10342000B0E0E5E1FAE10C94503C782E662EA895C8
:10343000262F30E0F901EF58FD4F54903396149148
:10344000482F50E0FA01EF58FD4FD4913396C491C4
:1034500060916C018091520190E0860F911D892B43
:1034600009F0E0C1A8958091220190912301880F75
:10347000991F880F991F9093340180933301809195
:10348000710190917201880F991F880F991F909375
:103490003201809331018EEB80932F0100911C014A
:1034A000EDE8F1E063E971E0DB01240F351F8A2FBD
:1034B000861B801748F441918D9190E0840F911DF7
:1034C00082179307A1F75CC088E088B9186017B924
:1034D000D4B9D5B918E1D12E00E010E0862D0E94B4
:1034E0005E0C982E892E872D0E94620C7C01801B19
:1034F000910B97FF03C091958195910903972CF04B
:10350000A895DA94E9F18701E9CFDD0F15B8D4B9B0
:10351000872D0E945E0C8135910590F5D5B9872DD8
:103520000E945E0C8C018C2F886087B9C8B915B8D1
:1035300054B8C8E14C2EC12CD12C872D0E945E0CB2
:10354000B82EA92E862D0E94620CEC019C012C192C
:103550003D0937FF03C031952195310923303105ED
:103560001CF5550C54B8862D0E945E0C6C0180EC45
:10357000E81684E4F806E8F4053881E01807E8F076
:103580008091220190912301909334018093330123
:103590008091710190917201909332018093310179
:1035A0008EE180932F013EC1A8954A9449F36E01A4
:1035B000C4CF003B8DE4180718F7C43A82E0D8075F
:1035C00008F061C088E9C816D104D0F2C8010E9491
:1035D000C60CAC019801A8E9B7EB0E94A43B9A0184
:1035E00040E050E00E94603B49015A01C6010E9440
:1035F000C60C9C01A8E9B7EB0E94A43B960140E0F1
:1036000050E00E94603B08378FE0180770F4C50156
:10361000B401B2E0660F771F881F991FBA95D1F7E2
:10362000620F731F841F951F12C088E7C8168FE0B2
:10363000D806A0F4CA01B901A2E0660F771F881F5F
:10364000991FAA95D1F7680D791D8A1D9B1D25E04C
:1036500030E040E050E00E94603B08C0280D391D7A
:103660004A1D5B1D5695479537952795A4E6B0E012
:103670000E94B93B4B015C018CEA880E8DE0981EDC
:10368000A11CB11C78C0692D782DE616F70608F448
:10369000B7010B2D1A2D0C171D0708F48E016B01B5
:1036A0006E157F0508F46701E0901F01F09020017E
:1036B000C6010E94CB0C9C01D7010E94A43B4B0188
:1036C0005C01C6010E94C60C9C0140E050E0C501AF
:1036D000B4010E94603B49015A017801C017D1072B
:1036E00008F47E01C0911801D0911901B701C801F9
:1036F0000E94CB0C9C01DE010E94A43B870120E0CC
:1037000030E0A90198010E94603B88E7C8168FE06D
:10371000D80670F4C501B401E2E0660F771F881F78
:10372000991FEA95D1F7620F731F841F951F12C06E
:1037300088E7E8168FE0F806B0F4CA01B90152E054
:10374000660F771F881F991F5A95D1F7680D791D4D
:103750008A1D9B1D25E030E040E050E00E94603B68
:1037600049015A0108C0820E931EA41EB51EB694CC
:10377000A7949794879410911E01143008F000CFFD
:103780007A94760C872D90E0EC01C95ADE4F28819F
:10379000880F991F880F991FFC01EA55FE4F2223BD
:1037A000D1F1C080D180E280F380A50194012C1971
:1037B0003D094E095F0957FF07C050954095309568
:1037C00021953F4F4F4F5F4FAAE0B0E00E94B93BB9
:1037D000A70196012C593F4F4F4F5F4F280D391DC0
:1037E0004A1D5B1D0E94603B232B242B252B09F0D7
:1037F000C7CE133019F081E080931E0182E08883E8
:1038000080917301E82FF0E0E65AFE4F70828F5FDF
:1038100080937301B5CE80829182A282B38281E0CF
:103820008883AECECDB7DEB7E0E10C946C3CCF938D
:10383000C82FC09595B160FF02C0982B01C09C2392
:1038400095B994B1982B94B982E00E942A0C84B166
:103850008C2384B985B18C2385B9CF910895A0E0DC
:10386000B0E0E5E3FCE10C94563C8AE0D82E98E009
:10387000C92E2FE3A22E39E0B32EC7B8C8B815B8A9
:10388000A4B880E00E945E0C8C0181E00E94620C72
:10389000EC0182E00E94620C20911E01293081F42B
:1038A00028E027B914B81093060100930501D093BE
:1038B0000801C093070190930A018093090155C044
:1038C0000430110540F4C430D10550F48430910522
:1038D00038F329E009C0083E134010F028E001C089
:1038E00029E0C83ED34008F42260883E934008F4A3
:1038F000246027B9C0E0D0E0A89580E00E94560C73
:103900007C0181E00E94620C8C0182E00E94620CCA
:1039100024E1E21625E0F20608F4389A043135E095
:10392000130708F4399A843125E0920708F43A9A8B
:1039300036E0E316F10428F40630110510F406977A
:1039400038F02196C43F81E0D807B1F6B0921E014D
:1039500000E010E00C171D0729F00E94190C0F5F02
:103960001F4FF8CFDA9409F088CFCDB7DEB7EAE081
:103970000C94723CCF92DF92EF92FF92CF93209102
:103980007701309178014091790150917A01C0918D
:1039900089018AE0C82ED12CE12CF12C8C2FCF5F2D
:1039A000213A96E8390791E04907510538F0CA01F4
:1039B000B901A70196010E94603BF0CF8093890175
:1039C000A0913301B09134010E94B93B28E833E162
:1039D00040E050E00E94603B2093770130937801F3
:1039E0004093790150937A01CF91FF90EF90DF904F
:1039F000CF900895A4E0B0E0E0E0FDE10C94543CE9
:103A0000982E862E8FEF860F992D990F990D890F7D
:103A100080935401E92DF0E0EF58FD4F1491E62F0B
:103A2000F0E0EF58FD4FF490E62FF0E0EC58FD4F3A
:103A3000049180911E01813009F4ABC240911C01B8
:103A400083E991E069E971E0DC012A2F281B241742
:103A5000A0F42D9128110EC09D0127503109F901C4
:103A60002081291107C0FB01208131812C3D354087
:103A700008F48FC26E5F7F4FE8CF08601092840118
:103A80001092830181EF8093890110927701109247
:103A900078011092790110927A01E1DE88E088B90C
:103AA00007B9F4B8F5B8892D0E94620C7C01882D05
:103AB0000E94620CE81AF90A14B81092560110928A
:103AC0005501C12CD12C8091550190915601843F14
:103AD000914050F515B914B90E94130C14B815B8DB
:103AE0000E941A0CA895892D0E94620C6C01CE18B8
:103AF000DF0880915501909156018E37910528F08D
:103B00002BE4C216D1040CF43FC25DE2C51651E0AD
:103B1000D50684F4809155019091560101969093B9
:103B2000560180935501CFCFFDE2CF16F1E0DF06BD
:103B30000CF42AC28091550190915601892B21F0F5
:103B4000C60100E010E006C025E1C21625E0D2065D
:103B5000BCF385C0209155013091560120173107E3
:103B600058F00E94140C892D0E94620C8E199F0936
:103B7000A8950F5F1F4FEECF8601081B190B10167B
:103B8000110694F4093C11050CF0FEC128EE33E057
:103B9000D8010E94B33B9601442737FD4095542F2E
:103BA0000E94603B790102C0E12CF12CA0905501EC
:103BB000B09056015FEFA51AB50AC501A0E0B0E0CC
:103BC00080937F0190938001A0938101B093820143
:103BD000C601800F911F29D29C01D5010E94A43BF0
:103BE00060937F01709380018093810190938201A3
:103BF00060937701709378018093790190937A01B3
:103C000087EF80938901B6DE2091770130917801AA
:103C10004091790150917A0183E393E029833A83BB
:103C20004B835C830E94D13CA8EEB3E0A81BB10992
:103C300087FDB39529813A814B815C810E94C33B0A
:103C400024E630E040E050E00E94603B20937701A2
:103C5000309378014093790150937A0153C1FFDD8D
:103C600015B88FE087B988E088B9F12EFF0CF4B859
:103C700080E480937B0084E580BF892D80648093FD
:103C80007C0086E180937A000E941D0C1092560100
:103C900010925501109280001092850010928400BD
:103CA00087E286BB81E280936F0081E0809374019C
:103CB000F5B890911E0180938100953059F481E010
:103CC00090E0092C01C0880F0A94EAF780958F7064
:103CD00087B901C007B9F89483B7817F83BF80910A
:103CE0007401882389F083B7816083BF78948895B5
:103CF00083B78E7F83BFF894A895809155019091EA
:103D000056018034964059F7789410928100E090E3
:103D10008600F090870010926F0086E980937A0009
:103D200014B815B8892D0E94620C2091370130918A
:103D30003801821B930B0C9690938C0180938B011E
:103D400080915501909156018032934008F01CC13A
:103D50008091550190915601909382018093810149
:103D6000F0928001E0927F0184EF8093890180913D
:103D700055019091560182349105C8F060917F0100
:103D800070918001809181019091820124E630E060
:103D900040E050E00E94603B20937F01309380011F
:103DA000409381015093820186EF80938901A09115
:103DB0007501B091760120917F0130918001409191
:103DC0008101509182010E94B93B20E233E040E042
:103DD00050E00E94603B20937F013093800140932C
:103DE00081015093820120937701309378014093B1
:103DF000790150937A01BEDD80918901843F09F0F9
:103E000071C0C0907701D0907801E0907901F09076
:103E10007A0120EAC2162FE0D206E104F104C0F4D0
:103E2000A70196012C543F4F4F4F5F4F60EA7FE050
:103E300080E090E00E94603B2C0D3D1D4E1D5F1DFB
:103E400020937701309378014093790150937A0160
:103E5000C0907701D0907801E0907901F0907A01DC
:103E6000C114D10451E0E506F10428F4D092B70161
:103E7000C092B60106C081E090E09093B7018093B4
:103E8000B6018091540190E0805B9C4F0E94D13C30
:103E9000482F50E060E070E04C155D056E057F0531
:103EA00068F4C41AD50AE60AF70AC0927701D092DC
:103EB0007801E0927901F0927A0114C084E1C80E91
:103EC000D11CE11CF11CC416D506E606F70610F459
:103ED0000E943212109277011092780110927901AB
:103EE00010927A0114B98091770190917801A09194
:103EF0007901B0917A014997A105B10508F444C050
:103F0000E12CF12C80911C01882321F080911E016D
:103F10008530D1F588E080931E0120918901809140
:103F20008A018217BCF028132FC04091770150916D
:103F300078016091790170917A0180917B01909173
:103F40007C01A0917D01B0917E0184179507A607A1
:103F5000B707D0F48091770190917801A091790111
:103F6000B0917A0180937B0190937C01A0937D01B5
:103F7000B0937E0120938A01F0928601E092850140
:103F8000809287019092880188E087B988B914B837
:103F900015B82496ECE00C94703C1F920F920FB66B
:103FA0000F9211248F939F93B59904C0809174014F
:103FB000811109C0B59B10C0809186009091870047
:103FC0008A3F910548F480915501909156010196E0
:103FD00090935601809355019F918F910F900FBE42
:103FE0000F901F9018951F920F920FB60F921124E9
:103FF0008F939F9310927401B09B10C080918600A4
:10400000909187008A3F910548F4809155019091E5
:104010005601019690935601809355019F918F917F
:104020000F900FBE0F901F9018950F9221E08C32C9
:10403000920710F48CE291E08C52914069E170E0BB
:104040000E94393B99E16B3210F0982F6BE2981B7C
:10405000E5EDF2E0E60FF11DE60FF11D9F93CF01B4
:104060000E94D13C482F3196CF010E94D13C582F5D
:104070003196CF010E94D13C282F3196CF010E946A
:10408000D13C382F6F91421B530B649FC001659F39
:10409000900D11240C9669E170E00E94393B620F8B
:1040A000731FCB010F900895A0E0B0E0EAE5F0E2C5
:1040B0000C94543C88E893E190932301809322016F
:1040C00090933401809333018EEB80932F01C8E0ED
:1040D000C8B988E187B90E94220CC7B984E00E9460
:1040E0005E0CAC018B5C9840833F9140A0F481E072
:1040F00080933E012091330130913401AFEBB9E060
:104100000E94A43B9A0140E050E00E94603B309343
:104110002301209322018091220190912301909309
:104120003401809333018EE00E94620C8EE00E9485
:104130005E0C90933801809337010E94340D8FDB21
:1041400018E018B9C9E0C7B985E185B9D1E0D4B99B
:1041500080E00E945E0C7C018AE0D82ED7B894E003
:10416000B92EB4B881E00E945E0CE80EF91E0CE096
:1041700007B920E1C22EC4B882E00E945E0CE80EAE
:10418000F91E15B8C8B9C7B9D4B980E00E945E0C51
:104190000E94C60CEC01D8B8D7B8B4B881E00E9430
:1041A0005E0C0E94C60CC80FD91F08B907B9C4B865
:1041B00082E00E945E0C0E94C60CC80FD91F17B97E
:1041C00018B914B880913301909134014C01880CD6
:1041D000991C880E991E8E189F088C1A9D0AA12C76
:1041E000B12C9701A0E9BAE10E94A43BA50194017A
:1041F0000E94603B69017A0130933D0120933C01AC
:104200009E01A0E9BAE10E94A43BA50194010E948D
:10421000603B30933601209335012057354E309363
:10422000200120931F0180E7C81A85EED80AD0929A
:104230001901C09218018EE180932F01CDB7DEB72E
:10424000ECE00C94703CFF920F931F93CF93DF939D
:10425000C82FD62FF42E0E94230986E291E00E94F7
:104260008E09E1D16D2F8C2F0E945333C1E0009154
:10427000BA011091BB012091BC013091BD01011523
:1042800011052105310509F0C0E08091020187FD8B
:1042900002C0C11104C082E291E00E948E098D2FFC
:1042A0000E942309C11106C00E94260980915A016B
:1042B0000E94310AFF2049F080913F01813128F4AA
:1042C00090E08C5A9C4F0E948E0980E00E94620907
:1042D000C1111BC06091BA017091BB018091BC01FA
:1042E0009091BD0103E028E447EF0E94B40A85E302
:1042F00091E00E948E0989E693E00E94D93C23E078
:1043000046E464EF0E94A30B1AC080915A010E94F8
:10431000310A809102018E3F94F48DE491E00E9475
:104320008E0960910B0170910C0180910D019091AB
:104330000E0103E028E4409102010E94B40A80913A
:10434000B2019091B301A091B401B091B501892B54
:104350008A2B8B2BF1F080E00E9462096091B20100
:104360007091B3018091B4019091B50104E028E40B
:1043700040E00E94B40A80E391E00E948E0923E0AD
:1043800040E26FEF8091B8019091B9010E94A30BB8
:1043900007C080E00E94400980914201811102C063
:1043A0000E943A09CDB7DEB7E5E00C94773C0F9355
:1043B0001F93CF93DF93082F0E944F0780918701AF
:1043C0000E94230989E691E00E948E0906D560913A
:1043D00087018091880159D3909384018093830150
:1043E00011E08A3F9F4F08F010E0C0918501D09105
:1043F0008601112321F087E291E00E948E098091CD
:1044000088010E942309002359F090913F0181E126
:10441000891B0E94290987E890E00E948E0902C04A
:104420000E943A090E94C20760917B0170917C0151
:1044300080917D0190917E0104E026E440918A0103
:104440000E94B40A112369F088E591E00E948E0968
:1044500022E044E06EEF80918301909184010E94FC
:10446000A30B0E943A090E94CA07CD2B69F081E58F
:1044700091E00E948E0922E045E26FEF8091850174
:10448000909186010E94A30B0E943A09DF91CF917F
:104490001F910F9108958F7021F40E94D2070C9400
:1044A000941208958F3021F490913901913011F0D8
:1044B0008F5F089580E00895CF9382E990E00E9495
:1044C0004C2DC0E00E94DC0D60E082E00E940F1ADB
:1044D00062E080E00E940F1A0E944F0780917301F2
:1044E000882329F041E062E080E0ADDE12C082E97D
:1044F00090E00E948E098EE593E00E948E090E9452
:10450000C2078FE30E94D90880E00E9440090E9400
:104510003A098C2FC0DF88EE93E00E94D40C811101
:1045200005C08C2FBFDFC82F8A3F60F20E9456075C
:10453000CF9108950F931F93CF93DF93C0E0D8E0FE
:1045400012EF01E10E94DC0D60E082E053DAD093CB
:104550001E0180918901843FE1F4409177015091DF
:1045600078016091790170917A01443651056105B5
:10457000710578F440E060E082E00E94CD30609305
:104580007701709378018093790190937A01109369
:10459000890180918901823FACF080938A0140912A
:1045A0007701509178016091790170917A0140937F
:1045B0007B0150937C0160937D0170937E0181E0CB
:1045C000F6DE1CC00E944F078BE890E00E948E0927
:1045D00080913F01902F981B892F0E94290987E81D
:1045E00090E00E948E090E94C2078FE30E94D908C2
:1045F0000E943A090E94CA070E943A098C2F4BDF99
:1046000088EE93E00E94D40C811106C08C2F4ADF03
:10461000C82F8A3F08F496CF0E945607DF91CF91AA
:104620001F910F910895A3E1B0E0E9E1F3E20C944A
:104630004E3C82E08093020180911E01813009F09E
:1046400020C280917301813009F01BC220905A0171
:1046500024E0229EF0011124EA55FE4F80819181D1
:10466000A281B381893032E59307A105B10508F035
:1046700008C29B8B8A8B312C61E0822D631528F058
:104680000E94270AB82EA92E03C00E94270A5C01A7
:10469000EA2DF0E0EC58FD4F7490EB2DF0E0EF5870
:1046A000FD4FE49115B888E088B92A893B89203FFD
:1046B000310598F430FC11C00091180110911901D6
:1046C00000591A4181E090E00B2C01C0880F0A9438
:1046D000EAF78860872987B908C0E4B9872D886020
:1046E00087B9009118011091190144E1642E8B2DB6
:1046F0000E945A0C4C018A2D0E94620C34E08316F1
:10470000910410F4049710F06A9489F760E46093C0
:104710007B0084E580BF8B2D806480937C0086E1E4
:1047200080937A00E12CF12C109280001092850089
:104730001092840087E286BB0E941D0C932D91701D
:10474000998B30FC05C081E88093810078B808C05F
:1047500078B80E94260C80E286BB81E880938100B5
:1047600046B345FF13C028E028B91092810080E2CB
:1047700086BB80918600909187006C012091840017
:10478000309185008217930768F013C040FFE8CF8F
:1047900031E036BBA895C70101967C0180359105B3
:1047A000F9F6E1CF40FF05C061E066BB8FEFE81A84
:1047B000F80A86E980937A0034E1732E8B2D0E94EB
:1047C0005A0C4C018A2D0E94620C24E0821691043E
:1047D00010F4049710F07A9489F780903C0190903F
:1047E0003D018A899B89880E991E800E911E209119
:1047F0001A0130911B0100399AE11907B0F461EEFA
:10480000C616D104E104F10438F4C60165E070E095
:104810000E94393B645101C069E128523109261BCD
:10482000310967FD339586E009C0C40160EB76E38A
:104830000E94393B87E0860F285D3F4F90E0A0E063
:10484000B0E08C159D05AE05BF0528F4C81AD90A3D
:10485000EA0AFB0A03C0C12CD12C7601898988237E
:1048600029F092E2C90ED11CE11CF11C60E5E616AC
:10487000F10418F0C12CD12C76018BE0C816D104BC
:10488000E104F10428F091E0C91AD108E108F10827
:104890004091330150913401A12CB12CA8EEB3E02A
:1048A0000E94A43B2B013C019801DA010E94A43B29
:1048B000A50194010E94603B44275527C301B20122
:1048C0000E94603BC9010E948C0DFC01A50194016E
:1048D000C701B6010E941E3B4B015C01BF0180E095
:1048E00090E023E0660F771F881F991F2A95D1F764
:1048F0006B5F7F4F8F4F9F4F2AE030E040E050E0EA
:104900000E94603BC501B4010E94603B832D90E092
:10491000E1E0F0E0EC0FFD1F64E0369EE00DF11DDC
:10492000112420833183428353836989611117C025
:104930006CE0C616D104E104F10488F0FC01319664
:10494000EE0FFF1FEE0FFF1F81E090E08C0F9D1F09
:10495000E80FF91F20833183428353833394A89552
:10496000339493E0931508F087CE88E088B984E00B
:104970000E942A0C21E04D815E816F8178858981BA
:104980009A81AB81BC8184179507A607B70708F009
:1049900020E04D855E856F85788989859A85AB8510
:1049A000BC8584179507A607B70710F032E001C051
:1049B00033E0E22FF0E0EE0FFF1FEE0FFF1F81E06C
:1049C00090E08C0F9D1FE80FF91FDC0194E0399FE8
:1049D000A00DB11D11244D915D916D917C9180814F
:1049E0009181A281B381481759076A077B0708F0B4
:1049F000322FE1E0F0E0EC0FFD1F24E0329FE00DEC
:104A0000F11D112480819181A281B38180930B01DA
:104A100090930C01A0930D01B0930E0130FD09C0DD
:104A20002A893B89203F310520F48BEF80930201D6
:104A300017C02CEF20930201BC01CD016B5F7F4FAB
:104A40008F4F9F4F2AE030E040E050E00E94603BF3
:104A500020930B0130930C0140930D0150930E01F4
:104A600080910B0190910C01A0910D01B0910E016C
:104A7000892B8A2B8B2B11F41092020188E087B9C5
:104A800014B86396E2E10C946A3CAEE1B0E0EBE46A
:104A9000F5E20C944E3C662EB82E860F8983209149
:104AA0001E01283059F520917B0130917C01409105
:104AB0007D0150917E0157FD15C010918A0109C0FA
:104AC000CA01B9012AE0312D412D512D0E94603BD0
:104AD0001F5F173FACF391F4243160E036074105C6
:104AE000510518F48FEF9FEF45C1173F39F480E06F
:104AF00028178DE738074105410510F020E03DE714
:104B00002C8B3D8B26EDA22EE4E7F2E0E60DF11DA5
:104B1000859188608E87E4E7F2E0EB0DF11D8591C9
:104B200088608F87E1E7F2E0E60DF11D7590E1E71F
:104B3000F2E0EB0DF11DC59090EC692AB92A81E0F5
:104B4000E82EF12C012D112D8E831F8218861986D7
:104B50001A861B861C861D86188E198E1B8E1A8E31
:104B60000E942F1C88E088B960927C000E941E0C75
:104B70003F8537B975B874B852E05A95F1F700001F
:104B8000000014B815B8DD243E8537B975B874B87F
:104B900060927C00A895A0927A0080917A0086FDB0
:104BA000FCCF2090780030907900B0927C004C2DA2
:104BB000E5D02091780030917900288B398B3F85A2
:104BC00037B9C5B8C4B8A895B0927C00A0927A0055
:104BD00080917A0086FDFCCF609178007091790019
:104BE00060927C00472DCAD04091780050917900A6
:104BF00014B8CB01820D931DE80EF91E011D111D85
:104C0000EA82FB820C831D8388899989840F951F12
:104C10002E813F8168857985280F391F611D711D9F
:104C20002E833F836887798722E32417150650F087
:104C300075B874B80E94280C14B815B8888D83957F
:104C4000888F07C0483E73E0570718F08A8D839518
:104C50008A8F888999892817190660F03E8537B9A7
:104C6000C5B8C4B80E94280C14B815B8898D8395AE
:104C7000898F07C0883E73E0970718F08B8D839566
:104C80008B8FD3945D2D5F3F49F05F3731F45C2DFE
:104C9000550FC50E572D550F750E76CF40903C0120
:104CA00050903D01440C551C9201E4E0240D351D4B
:104CB000EA95E1F72901570168016E807F808884B9
:104CC000998420911E012830C1F46C897D89812D41
:104CD000912D65507040804090409B01AC010E9436
:104CE0001E3B9B01AC0160E779E786E190E00E9402
:104CF000603B621A730A840A950AA614B704C804B2
:104D0000D90428F46A187B088C089D0803C066241F
:104D100077244301B20180E090E09301A4010E9456
:104D20001E3B9501A6010E94603B8FE293E07981D2
:104D3000870F911D0E94D13C682EC90160E170E08F
:104D40000E94393B260F371FC9016816190618F44F
:104D5000861991090FC08C5E9F4F8615910540F40E
:104D60008C899D89843981E1980710F00E94321264
:104D7000812D912D6E96E2E10C946A3C1092810097
:104D80001092800010926F0010928B0010928A0097
:104D900057E056BB5FEF509385005093840055E079
:104DA00050937B0056EB50937A0051E05093810072
:104DB00058E25A95F1F7000045B944B955E05A95C3
:104DC000F1F7000014B815B81092810080917A00B4
:104DD00084FFFCCF80937A000895A4E0B0E0E3EF75
:104DE000F6E20C94563C8091850190918601892BC6
:104DF00009F0B5C0E0918701F0E0EC58FD4F049157
:104E00000860E0918801F0E0EF58FD4F14910E9496
:104E10002F1C88E088B915B807B914B980918801AA
:104E20000E94620C5C0100918A018CE0800F84304A
:104E300008F095C0015F80917B0190917C01A09169
:104E40007D01B0917E012AE0C22ED12CE12CF12C03
:104E5000BC01CD016B5F7F4F8F4F9F4FA701960124
:104E60000E94603B0F5F073019F0DA01C901F0CFF3
:104E7000293883E138074105510508F070C0253015
:104E8000310508F46CC015B914B900E010E0021740
:104E9000130768F429833A834B835C830E94240CB4
:104EA0000E5F1F4F5C814B813A812981F0CF14B88E
:104EB00015B8A89585E080932F01809188012983FA
:104EC0003A834B835C830E94620C29813A814B8137
:104ED0005C81A816B90620F47C01EA18FB0802C020
:104EE000E12CF12C00E010E00217130768F429838D
:104EF0003A834B835C830E94240C0F5F1F4F5C81BD
:104F00004B813A812981F0CF809188010E94620C07
:104F10002EE120932F01A895A816B90618F48A1936
:104F20009B0902C080E090E08E159F0588F49701F0
:104F3000281B390B69F0A4EFB1E00E94A43B970154
:104F400040E050E00E94603B309386012093850151
:104F50000E942F1C88E087B988B914B815B8249628
:104F6000EAE00C94723CA5E0B0E0E9EBF7E20C94C7
:104F70004E3C8CEC91E090D520EF2B8354980E940E
:104F8000190C14BC16BC109212011092130110924D
:104F900014011092150131E035BB30936E00109270
:104FA000800083E19AE790938B0080938A00E1E090
:104FB000F0E0F0938900E093880010928500109251
:104FC000840083B5816083BDF6E0F6BBF0936F008B
:104FD000789424E02093810012E31A820E94120C3C
:104FE000A8954F9902C031E03A8385B5811127C059
:104FF00015BC86B5809312010E94CA070E943A0927
:105000000E94D2070E943A090E946E0986E60E9419
:10501000D9080E9472096091120170911301809168
:1050200014019091150147E00E94B80B54988091AB
:105030008100882339F08FE30E94D90803C0115002
:1050400069F6D6CF1092810010926F002091120164
:10505000309113014091140150911501DA01C901F9
:105060000197A109B109813F9048A105B10508F058
:10507000FAC0AAE0B0E00E94B93B685F7F4F8F4F53
:105080009F4F23E096958795779567952A95D1F759
:10509000660F771F70936E0160936D0154980E94A4
:1050A000190C16BC109212011092130110921401E7
:1050B0001092150181E085BB80936E001092700103
:1050C00010926F0194E09BBB809168008460809394
:1050D0006800789480916D00806180936D001982E2
:1050E0000E94120CA8954F9902C0E1E0EA838091DA
:1050F0006D0084FF05C0F981FF5FF983FA3F81F7F6
:1051000015BC80916D008F7E80936D00809168004A
:105110008B7F8093680086B5809312010E94CA0736
:1051200084E50E94D9080E94720960911201709171
:105130001301809114019091150120916D0130911E
:105140006E013D832C8328EA31E640E050E00E9466
:10515000C93BEC81FD815F01C12CD12CE12CF12CEC
:1051600000E010E00E94F23B39014A011B012C01D2
:105170002C813D812038310530F007E023E745EFF1
:10518000B301C40116C084E6A82EB12CC12CD12CC9
:10519000E12CF12C00E010E09301C2010E94F23BEF
:1051A000E22FF42F07E023E747EF6E2F732F8F2FA7
:1051B000952F0E94B40A39813A3F21F48FE30E946F
:1051C000D90851C09301A401B101C201263E354B5B
:1051D00041055105610571058105910509F008F446
:1051E00042C00E94D20786E60E94D9080E94720936
:1051F0009301A401B101C201530164017101820153
:1052000021153A4C4A495B436105710581059105B9
:1052100089F080F020E030E04AE85DE568E775E479
:1052200083E691E00E94F23BE22FF42F07E028E4AE
:105230004AEF0FC020E030E44AE750E163EF7AE53F
:1052400080E090E00E94F23BE22FF42F07E028E498
:105250004DEF6E2F732F8F2F952F0E94B40A8AE780
:105260000E94D908549810926E0080ED97E00E9439
:10527000D40C2A81820F29F43B8131503B833111B8
:105280007DCE2596E2E10C946A3C1F920F920FB6F8
:105290000F9211248F939F93AF93BF937894809133
:1052A000120190911301A0911401B09115019F5F1B
:1052B000AF4FBF4F8093120190931301A09314013D
:1052C000B0931501BF91AF919F918F910F900FBE39
:1052D0000F901F9018951F920F920FB60F921124E6
:1052E0008F9386E085BD8F910F900FBE0F901F901A
:1052F00018951F920F920FB60F921124A895109235
:10530000810015BC0F900FBE0F901F9018951F9233
:105310000F920FB60F9211242F933F938F939F9369
:1053200080916F0190917001892B11F481E085BD0E
:1053300020916F013091700180916D0190916E010B
:105340002817390730F015BC80916D008F7E80934F
:105350006D0080916F0190917001019690937001A2
:1053600080936F019F918F913F912F910F900FBE6E
:105370000F901F9018958B3008F08B50811103C04F
:1053800088E392E031C0813019F48CEC91E02CC0BC
:10539000823019F48FE092E027C0833019F484E062
:1053A00092E022C0843019F48DE990E01DC0853070
:1053B00019F482E990E018C0863019F48BE890E087
:1053C00013C0873019F483EF91E00EC0883019F4D0
:1053D00084EE91E009C0893019F486E292E004C0BD
:1053E0008A3021F48BE192E00E948E090E943A09F2
:1053F0000C944A0708950F93CF938DE990E04CD316
:10540000C0E010921E0160E082E062D380911E0134
:105410008830C1F50E94C20783E40E94D9080E9427
:10542000720960917B0170917C0180917D01909166
:105430007E0103E026E440918A010E94B40A0E94A2
:105440003A0960918701809188011FDB9093840164
:10545000809383010E94CA0789E591E00E948E092A
:1054600080918301909184018A3F2FEF920730F45D
:1054700022E044E06EEF0E94A30B08C08FE30E947D
:10548000D90804C00E946E090E94CA070E943A0906
:105490008C2F01D888EE93E00E94D40C811106C0B5
:1054A0008C2F00D8C82F8A3F08F4ABCFCF910F9133
:1054B00008950895A5E0B0E0E0E6FAE20C944E3CD1
:1054C0008FE092E0E9D280E18093800010926F003B
:1054D00081E090E0909389008093880010928B0087
:1054E00010928A0083E086BB1092820088E080934D
:1054F000810015B891E194B988B989E087B9229AF9
:1055000080938100212C1B822AE029833324339449
:10551000812C912C5401839411E1822D90E00A9604
:105520006EE170E00E944D3B662E562E3B81631764
:1055300089F00E944F078FE092E00E948E09712C43
:10554000751428F48EE20E94D9087394F9CF0E9452
:105550003A096B821231C8F0C701B601A501940166
:105560000E94603B2B013C01832D69810E942D3BF1
:10557000A92FB0E0A50194010E94B93B6B017C0109
:10558000C40CD51CE61CF71C0CC0832D69810E943D
:105590002D3BA92FB0E0A50194010E94B93B6B01FE
:1055A0007C010E94C2078981381208C081E0123153
:1055B00008F480E08A83811106C001C01A82163186
:1055C00020F48EE303C08CE301C082E50E94D90879
:1055D0000E942609412FC701B6010E94B80BC701DE
:1055E000B6017E5E85489F4FA7019601220F331FAB
:1055F000441F551F0E94603BCA014F3F510539F0BF
:1056000030F08DE08093810080E094E01FC0403452
:10561000510530F08CE08093810080E091E016C06D
:105620004830510530F09BE09093810080E490E099
:105630000DC0892B31F0EAE0E093810088E090E032
:1056400005C0F9E0F093810081E090E02C01612C2D
:10565000712CCA01B901A30192010E94603BC901EA
:1056600001979093890080938800809188009091A1
:105670008900892B31F421E030E0309389002093B8
:1056800088000E943A090E94CA0786E60E94D9084B
:105690000E94260980918800909189009D838C83C7
:1056A00060E079E08DE390E0A30192010E94603B0D
:1056B000A4E6B0E00E94B93BEC81FD8131969F01E8
:1056C00040E050E00E94603B29013A01A4E6B0E0CE
:1056D000A70196010E94B93B461A570A680A790A3F
:1056E00005E228E44EEFC301B2010E94B40A8AE742
:1056F0000E94D9080E943A0980ED97E00E94D40CDC
:10570000882309F443C0883C60F010928100109215
:10571000800088E087B914B822982596E2E10C94BD
:105720006A3C813578F1FA81FF23D9F01150C50127
:10573000B4012AE030E040E050E00E94603B4901C3
:105740005A01C701B6010E94603BCA01B9012AE0B3
:1057500030E040E050E00E94603B362E2AE0298392
:1057600031C0163130F51F5F163111F435E1398340
:10577000AAE0B0E0A50194010E94B93B4B015C0195
:10578000312C20C08B3008F03394212C832D90E0F5
:10579000E9816E2F70E06F5F7F4F0E944D3B382E86
:1057A000822D0E945222282EFFEEF81708F0B5CE67
:1057B000ACCF2AE0298333243394812C912C5401DB
:1057C000839411E1212CA9CEA4E0B0E0EAEEFBE243
:1057D0000C94523C84E092E05FD183E2809380009D
:1057E00010926F008FEF90E090938B0080938A006F
:1057F00083E086BB1092820015B881E184B988E00D
:1058000088B929E027B9229A81E090E09093890035
:10581000809388002093810010E000E0A2E37A2EBC
:10582000612CB4E6CB2ED12CE12CF12C88248A9467
:1058300083E0982EA12CB12C7016E9F183E6871530
:1058400010F4ECE97E0E272D30E0AFEFB3E00E94BC
:10585000A43B6E5C7F4F8F4F9F4FA70196010E9424
:10586000603B30938B0020938A0029833A834B83DB
:105870005C830E94C207A8EEB3E029813A814B8184
:105880005C810E94B93B61507E4F8F4F9F4FA501B5
:1058900094010E94603BDA01C90125E045E26FEF07
:1058A0000E94A30B0E943A09F8E2F61518F48CE363
:1058B0000E942A0C072D80E496E00E94D40C682EEA
:1058C00082E8861560F488E087B910928100109212
:1058D000800014B822982496EEE00C946E3CE2E32B
:1058E000E61518F4FAE07F0E03C0662011F07394F9
:1058F00010E0812F0E945222182F803F08F49CCF85
:10590000E2CF0F931F93CF93DF9383EF91E0C4D047
:1059100083E393E00E94D13C182F00E00E94C2076D
:10592000C12FDD27C7FDD09517FF0BC08DE20E9468
:10593000D90823E045E26FEF882799278C1B9D0B40
:1059400004C023E045E26FEFCE010E94A30B0E944A
:105950003A0980E496E00E94D40C882331F0823822
:1059600088F48932C8F01F5F00E0113514F0155635
:1059700003C01C3E0CF41B59802F0E945222082F9A
:10598000803F60F2612F83E393E00E94DE3CDF9171
:10599000CF911F910F9108951150E6CF813019F4E6
:1059A00080E0E1CA0895823011F484CD08958330F7
:1059B00011F40ACF0895843011F41DCD0895853077
:1059C00019F40C945C220895863029F40E9456073D
:1059D0000C949A220895873011F493CF089588305B
:1059E00021F481E10C94660E0895893011F4B2C15E
:1059F00008958A3011F40C94070E0895FF920F93C6
:105A00001F93CF93DF9383E492E046D0D0E0C0E0D1
:105A100019E01C0FF12C01E00F0D60E0802F880FC2
:105A20000E941F0782E0F81204C08EE30E94D9088A
:105A300002C00E9426091B3018F085EF810F01C0BB
:105A4000812F99DC1F5F063011F0F02EE4CF80E447
:105A50009FE10E94D40C8111D0E0909139019130E6
:105A600009F4D0E0823340F0CC2381F08C2F96DF14
:105A700083E492E011D002C08111CF5FDF5FDE3698
:105A800028F4CB3008F4C4CFCB50C2CF80E0CDB7E0
:105A9000DEB7E5E00C94773CA2E0B0E0E2E5FDE2A1
:105AA0000C945D3C89839A830E94560789819A8170
:105AB0000E948E0914E682E00E942A0C4F9902C0CF
:105AC0001150C9F70E94C2072296E3E00C94793C7A
:105AD000A4E0B0E0EEE6FDE20C94533C882E762E76
